:020000040800F2
:1000000050040020250A0008110400081304000809
:10001000170400081B0400081F040008000000006B
:1000200000000000000000000000000023040008A1
:100030002504000800000000270400082904000827
:100040003F0A00083F0A00083F0A00083F0A00086C
:100050003F0A00083F0A00083F0A00083F0A00085C
:100060003F0A00083F0A00083F0A00083F0A00084C
:100070003F0A00083F0A00083F0A00083F0A00083C
:100080003F0A00083F0A00083F0A00083F0A00082C
:100090003F0A00083F0A00083F0A00083F0A00081C
:1000A0003F0A00083F0A00083F0A00083F0A00080C
:1000B0003F0A00083F0A00083F0A00083F0A0008FC
:1000C0003F0A00083F0A00083F0A00083F0A0008EC
:1000D0003F0A00083F0A00083F0A00083F0A0008DC
:1000E0003F0A00083F0A00083F0A00083F0A0008CC
:1000F0003F0A00083F0A00083F0A00083F0A0008BC
:100100003F0A00083F0A00083F0A00083F0A0008AB
:100110003F0A00083F0A00083F0A00083F0A00089B
:100120003F0A00083F0A00083F0A00083F0A00088B
:10013000DFF80CD001F08AFD0048004745010008B7
:100140005004002000F078F900F056FB35A001F0D3
:100150008FFD3EA001F08CFD45A001F089FD00F06F
:10016000BFFA4E49087008460078012803D14CA018
:1001700001F07EFD02E052A001F07AFD51E05BA0AB
:1001800001F076FD00F07CFA604800F0CDFA4349BA
:1001900008700846007840B1102802D020280CD101
:1001A00007E05BA001F064FD07E069A001F060FDDD
:1001B00003E06FA001F05CFD00BF00BF79A001F07B
:1001C00057FD00F036FA7E4800F0DEFA3349087039
:1001D0000846007800B3402822D14FF0000079494A
:1001E000086014E07648774A1268815C76A001F0D6
:1001F0003FFD734873490968405C4449714A12687D
:1002000088547048006800F101006E4908606D482C
:1002100000680428E6DB03E076A001F029FD00BFBA
:1002200000BFACE70D0A20D5E2CAC7D2BBB8F620A2
:100230004E524632344C303120CEDECFDFB4ABCA22
:10024000E4CAB5D1E9200D0A000000000D0A20D54E
:10025000E2CAC7CEDECFDFB4ABCAE420D6F7BBFA22
:10026000B6CB20B5C4B7B4C0A1D0C5CFA20D0A008B
:100270000D0A202020D5FDD4DABCECB2E24E524665
:10028000D3EB4D4355CAC7B7F1D5FDB3A3C1ACBD40
:10029000D3A1A3A1A3A1A30D0A0000000800002080
:1002A0000D0A2020202020204E5246D3EB4D4355EE
:1002B000C1ACBDD3B3C9B9A6A3A10D0A000000000B
:1002C0000D0A20204E5246D3EB4D4355C1ACBDD351
:1002D000CAA7B0DCA3ACC7EBD6D8D0C2BCECB2E99D
:1002E000BDD3CFDFA1A30D0A000000000D0A20D668
:1002F000F7BBFAB6CB20BDF8C8EBD7D4D3A6B4F081
:10030000B7A2CBCDC4A3CABD0D0A000000000020D7
:100310000D0A20D6F7BBFAB6CB20C3BBBDD3CAD5D6
:10032000B5BDD3A6B4F0D0C5BAC5A3ACB7A2CBCDEA
:10033000B4CECAFDB3ACB9FDCFDEB6A8D6B5A3AC7A
:10034000B7A2CBCDCAA7B0DCA1A3200D0A00000044
:100350000D0A20CEB4D6AAD4ADD2F2B5BCD6C2B75F
:10036000A2CBCDCAA7B0DCA1A3200D0A00000000DB
:100370000D0A20D6F7BBFAB6CB20BDD3CAD5B5BD82
:1003800020B4D3BBFAB6CB20B5C4D3A6B4F0D0C545
:10039000BAC5A3ACB7A2CBCDB3C9B9A6A3A1200D52
:1003A0000A0000000D0A20D6F7BBFAB6CB20BDF834
:1003B000C8EBBDD3CAD5C4A3CABDA1A3200D0A00F2
:1003C00009000020040000200D0A20D6F7BBFAB671
:1003D000CB20BDD3CAD5B5BD20B4D3BBFAB6CB2094
:1003E000B7A2CBCDB5C4CAFDBEDDCEAAA3BA2564E3
:1003F000200D0A000D0A20D6F7BBFAB6CB20BDD3DC
:10040000CAD5B3F6B4EDA1A32020200D0A00000048
:10041000704700BFFEE700BFFEE700BFFEE700BF7A
:10042000FEE77047704770477047000001E0A0F199
:1004300001000028FBD1704700B587B0012145209D
:1004400001F034F80121080301F030F84FF0E0002A
:10045000ADF804004FF001008DF806004FF01800D1
:100460008DF8070001A9DE4800F04EFB4FF00600B2
:10047000ADF804004FF001008DF806004FF01000B9
:100480008DF8070001A9D64800F03EFB4FF00800A8
:10049000ADF804004FF001008DF806004FF0480061
:1004A0008DF8070001A9CE4800F02EFB0221CC48B0
:1004B00000F0E6FB4FF00000ADF808004FF482704A
:1004C000ADF80A004FF00000ADF80C00ADF80E00DA
:1004D000ADF810004FF40070ADF812004FF01000AE
:1004E000ADF814004FF00000ADF816004FF0070013
:1004F000ADF8180002A9BB4800F0A2FC0121B948E0
:1005000000F05EFD07B000BD10B5044600BF02213B
:10051000B44800F0F1FD0028F9D02146B14800F0C0
:1005200091FD00BF0121AF4800F0E6FD0028F9D0A1
:10053000AC4800F089FDC0B210BD70B505460C4650
:100540004FF00401A64800F09DFB0221A44800F0F2
:1005500099FB2846FFF7D8FF06462046FFF7D4FF51
:1005600002219F4800F08CFB304670BD70B50446F8
:100570004FF004019A4800F085FB0221984800F0F2
:1005800081FB2046FFF7C0FFFF20FFF7BDFF0546B8
:100590004FF00201924800F073FB284670BD2DE930
:1005A000F04107460D4616464FF004018C4800F016
:1005B00069FB02218A4800F065FB3846FFF7A4FF7B
:1005C00080464FF0000406E0FF20FFF79DFF28550E
:1005D00004F10100C4B2B442F6DB0221804800F00D
:1005E0004FFB4046BDE8F0812DE9F04107460C463F
:1005F00015464FF004017A4800F044FB0221784888
:1006000000F040FB3846FFF77FFF80464FF00006C2
:1006100006E014F8010BFFF777FF06F10100C6B200
:10062000AE42F6DB02216E4800F02AFB4046BDE8F0
:10063000F08110B504216A4800F024FB05226A49C4
:100640002A20FFF7D1FF01212120FFF776FF0121AA
:100650002220FFF772FF28212520FFF76EFF0421DB
:100660003120FFF76AFF0F212620FFF766FF0F21D9
:100670002020FFF762FF0421594800F001FB10BD64
:1006800010B50421564800F0FDFA052257493020E4
:10069000FFF7AAFF052254492A20FFF7A5FF0121F1
:1006A0002120FFF74AFF01212220FFF746FF1A21F0
:1006B0002420FFF742FF28212520FFF73EFF0F21CE
:1006C0002620FFF73AFF0E212020FFF736FF0421F6
:1006D000434800F0D5FA4FF6FF70FFF7A7FE10BDB4
:1006E0001FB543A103C9CDE90201052202A93020AB
:1006F000FFF77AFF052269461020FFF750FF4FF001
:10070000000407E01DF80400C22800D004E004F152
:100710000100C4B2052CF5DB00BF052C02D101207D
:1007200004B010BD0020FBE770B505464FF0040192
:100730002B4800F0A7FA04222946A020FFF754FF17
:100740000421274800F09CFA00BF0821244800F04B
:1007500077FA0028F9D10720FFF708FF0446214661
:100760004FF02700FFF7E9FEFF21E120FFF7E5FE4C
:1007700014F0100F01D0102070BD14F0200F01D024
:100780002020F9E70020F7E770B505464FF0040197
:10079000134800F075FA00BF0821114800F050FA24
:1007A0000028F9D104210E4800F06CFA0720FFF769
:1007B000DDFE044621464FF02700FFF7BEFE14F091
:1007C000400F0AD0042229466120FFF7E8FEFF21EE
:1007D000E220FFF7B2FE402070BD0020FCE70000E1
:1007E0000008014000300140120000200D000020F0
:1007F000C2C2C2C2C200000000B585B0012144F2ED
:10080000040000F053FE4FF40070ADF810004FF0FC
:1008100018008DF813004FF003008DF8120004A9A2
:100820007E4800F071F94FF48060ADF810004FF091
:1008300004008DF8130004A9784800F065F94FF41E
:10084000E13000904FF00000ADF80400ADF8060074
:10085000ADF80800ADF80C004FF00C00ADF80A0040
:1008600069466F4800F0DBFE01216D4800F081FF12
:1008700005B000BD70B504460D46E1B2684800F011
:10088000FBFF00BF6648008810F0800FFAD02046BA
:1008900070BDF0B503460D4616464FF000072946D9
:1008A0000A2E03D0384608702846F0BD43B94FF0F1
:1008B000300001F8010B4FF0000008702846F4E703
:1008C000002B05DA4FF02D0001F8010BC3F10003F6
:1008D00042F210720FE093FBF2F404B93FB104F15D
:1008E000300001F8010B04FB12334FF001074FF009
:1008F0000A0092FBF0F2002AEDDC4FF000000870D5
:100900002846D2E70FB470B586B006460CA8019011
:100910007BE00B9800785C281FD10B98401C0B9053
:1009200000786E280AD0722811D10D21304600F0CF
:10093000A3FF0B9800F101000B900DE00A21304657
:1009400000F09AFF0B9800F101000B9004E00B9867
:1009500000F101000B9000BF50E00B9800782528B3
:1009600045D10B98401C0B90007864281AD073284E
:1009700037D1019810C801900CE02178304600F082
:100980007BFF00BF4021304600F0ECFF0028F9D08B
:1009900004F1010420780028EFD10B9800F1010048
:1009A0000B9023E0019820C801900A2202A9284652
:1009B000FFF76FFF02AC0CE02178304600F05CFFDF
:1009C00000BF4021304600F0CDFF0028F9D004F1EF
:1009D000010420780028EFD10B9800F101000B9062
:1009E00004E00B9800F101000B9000BF06E00B98AB
:1009F00010F8011B0B90304600F03EFF00BF402175
:100A0000304600F0AFFF0028F9D00B98007800289E
:100A10007FF47FAF06B070BC5DF814FB00080140A6
:100A2000003801400648804706480047FEE7FEE7D9
:100A3000FEE7FEE7FEE7FEE7FEE7FEE7FEE7FEE78E
:100A4000111B00083101000810B50446DE4884423D
:100A500008D10121042000F047FD0021042000F00E
:100A600043FD46E0D948844208D10121082000F026
:100A70003BFD0021082000F037FD3AE0D4488442D5
:100A800008D10121102000F02FFD0021102000F0DE
:100A90002BFD2EE0CF48844208D10121202000F018
:100AA00023FD0021202000F01FFD22E0CA488442DF
:100AB00008D10121402000F017FD0021402000F066
:100AC00013FD16E0C548844208D10121802000F0C2
:100AD0000BFD0021802000F007FD0AE0C0488442A1
:100AE00007D10121801500F0FFFC0021A01500F0C6
:100AF000FBFC10BD10B50121084600F0F5FC0021FB
:100B0000012000F0F1FC10BD2DE9F04102464FF04C
:100B100000052E46284603460446074691F803C0C2
:100B20000CF00F0591F803C01CF0100F03D091F8E2
:100B300002C04CEA0505B1F800C01CF0FF0F35D02B
:100B400014684FF000002EE04FF0010C0CFA00F397
:100B5000B1F800C00CEA03069E4222D14FEA80039E
:100B60004FF00F0C0CFA03F724EA070405FA03FC14
:100B70004CEA040491F803C0BCF1280F06D14FF0F1
:100B8000010C0CFA00FCC2F814C00AE091F803C092
:100B9000BCF1480F05D14FF0010C0CFA00FCC2F873
:100BA00010C000F101000828CED31460B1F800C0D5
:100BB000BCF1FF0F38DD54684FF0000031E000F168
:100BC000080C4FF0010808FA0CF3B1F800C00CEA69
:100BD00003069E4223D14FEA80034FF00F0C0CFA1C
:100BE00003F724EA070405FA03FC4CEA040491F82D
:100BF00003C0BCF1280F05D100F1080C08FA0CF86D
:100C0000C2F8148091F803C0BCF1480F07D100F17D
:100C1000080C4FF0010808FA0CF8C2F8108000F137
:100C200001000828CBD35460BDE8F0814FF6FF7176
:100C300001804FF0020181704FF00401C1707047D4
:100C400002464FF0000093680B4202D04FF00100C3
:100C500001E04FF0000070470146886880B270479D
:100C600002464FF00000D3680B4202D04FF0010063
:100C700001E04FF0000070470146C86880B270473D
:100C800001617047416170470AB1016100E0416153
:100C90007047C16070474FF4803242EA01028261BE
:100CA0008161826182698269704702464FF000006B
:100CB0004C4B18684FF6807300EA030040EA0210BC
:100CC00040EA0100474B186070474749C8617047C8
:100CD000F0B50A464FF000031C4619460D4600F0D9
:100CE0000046B6F1004F02D13E4EF16901E03D4EA3
:100CF0007168C0F3034583B200F44016B6F5401F97
:100D000008D121F07061374E766826F07066354F55
:100D10007E6017E000F48016B6F5801F08D14FF012
:100D2000030606FA05F421EA040141F0706109E0C6
:100D30004FEA50564FEA061603FA06F621EA060174
:100D400041F070613AB14FEA50564FEA061603FA85
:100D500006F646EA010100F00046B6F1004F02D166
:100D6000204EF16101E01F4E7160F0BD30B54FF0D3
:100D700000024FEA81734FEA13744FF00F0303FA36
:100D800004F21A4B4FEAA10453F8243023EA020379
:100D9000164C4FEAA10544F8253023464FEAA1043A
:100DA00053F824304FEA81744FEA147400FA04F4C3
:100DB00043EA04030D4C4FEAA10544F8253030BD49
:100DC0000B4908607047000000080140000C01401A
:100DD000001001400014014000180140001C0140B7
:100DE00000200140000001400000204208000140B6
:100DF000DC00204210B50446DF48844208D10121BE
:100E0000801400F071FB0021A01400F06DFB16E0CF
:100E1000DA48844208D10121001400F074FB00215B
:100E2000201400F070FB0AE0D548844207D101216C
:100E3000C01300F068FB0021E01300F064FB10BD5C
:100E400010B54FF00002028802F441520B884C8822
:100E500043EA04038C8843EA0403CC8843EA04038E
:100E60000C8943EA04034C8943EA04038C8943EA6E
:100E70000403CC8943EA040343EA02020280838B21
:100E80004FF2FF7403EA040383830B8A038210BDCD
:100E90002DE9F04F85B005460C464FF000094FF0A4
:100EA00002074FF000084FF0010B4FF00006B2466A
:100EB000A88B4FF2400100EA0100A8834FF0020026
:100EC0002884B5F81C90A068022801D100BF3BE03F
:100ED000A08810B94FF0010B01E04FF0020BA748BA
:100EE000854200D100E000BF684600F064FADDF8FA
:100EF00000A0E088B0F5007F0CD14FEA1A2000EB8B
:100F000080004FEA4000A168B0FBF1F000F105005D
:100F100086B20DE04FEA4B10BAFBF0F000EB800018
:100F20004FEA4000A168B0FBF1F000F1050086B285
:100F30004FF00A00B6FBF0F606F00108A6EB080039
:100F4000C0F34F074FEA0828022F01DBFF2F03DD14
:100F50004FF002074FF00008E08840EA080040EA3E
:100F600007002884A088A18940EA0100618840EA3E
:100F70000100218840EA010040F4006040EA0909CC
:100F8000A5F81C9005B0BDE8F08F4FF0000101807E
:100F900041808180C180018141818181C1814FF087
:100FA0000701018270474FF000010180418081807C
:100FB000C1804FF0020181604FF0000181817047D4
:100FC00021B1028842F04002028005E002884FF61B
:100FD000BF7302EA03020280704721B1828B42F4A0
:100FE0008062828305E0828B4FF6FF3302EA0302C0
:100FF0008283704770B54FF0000423464FEA2114F6
:101000004FF0010505FA04F5ABB222B1858845EA37
:101010000305858006E085886FEA0306B6B205EA17
:101020000605858070BD10B522B1838843EA0103AF
:10103000838006E083886FEA0104A4B203EA040314
:10104000838010BD81817047014688897047A1F572
:101050007E42FF3A04D0028842F48072028005E0AA
:1010600002884FF6FF6302EA03020280704721B153
:10107000828842F00402828005E082884FF6FB738A
:1010800002EA03028280704702884FF2FF7302EA8D
:1010900003020280028842EA01020280704701884E
:1010A00041F480510180704721B1028842F400521E
:1010B000028005E002884DF6FF7302EA0302028017
:1010C000704702464FF00000012901D0108B00E06C
:1010D000908A70470146088A7047B1F5804F04D165
:1010E000028842F48042028005E002884BF6FF73DA
:1010F00002EA03020280704702464FF000001389A3
:101100000B4202D04FF0010001E04FF000007047A9
:101110006FEA010202817047F0B502464FF000000D
:1011200004460346054601F00F074FF0010606FA94
:1011300007F6B4B24FEA21134FF0010606FA03F6A0
:10114000B3B2968806EA03051689264203D015B184
:101150004FF0010001E04FF00000F0BD10B54FF07E
:10116000000201F00F044FF0010303FA04F39AB2F6
:101170006FEA0203038110BD0030014000380040D7
:10118000003C0040F748006840F00100F549086065
:1011900008464068F44900EA0100F2494860084600
:1011A0000068F24900EA0100EE490860084600685C
:1011B00020F4802008600846406820F4FE00486063
:1011C0004FF41F0088607047E649096821F48031B8
:1011D000E44A11601146096821F480211160B0F5DC
:1011E000803F03D0B0F5802F0ED106E0DD490968BD
:1011F00041F48031DB4A116007E0DA49096841F4C3
:10120000A021D84A116000E000BF00BF704710B5B0
:1012100001464FF00002134610464FEA6112012AC0
:1012200002D1D04C236806E0022A02D1CD4C236AB9
:1012300001E0CC4C636A01F01F024FF0010404FA94
:1012400002F41C4202D04FF0010001E04FF0000018
:1012500010BD70B54FF000042546264600BF312072
:10126000FFF7D5FF064604F10104B4F5A06F01D0E5
:10127000002EF4D03120FFF7CAFF10B14FF0010566
:1012800001E04FF00005284670BD01464FF0000018
:10129000B44A106820F0F80040EAC10010607047BE
:1012A000B3490860704702464FF00000AD4B5868E4
:1012B00020F47C1042EA010343EA0000A94B586085
:1012C0007047AB490866704701464FF00000A54AD9
:1012D000506820F0030040EA010050607047A148C8
:1012E000406800F00C00704701464FF000009D4A36
:1012F000506820F0F00040EA01005060704701465D
:101300004FF00000974A506820F4E06040EA010086
:101310005060704701464FF00000924A506820F438
:10132000605040EAC1005060704731B18D4A527A36
:1013300042EA00028B4B5A7208E08A4A527A6FEAFC
:101340000003DBB202EA0302864B5A7270478949F6
:101350000860704701464FF00000824A506820F450
:10136000404040EA0100506070474FF00001824A5F
:1013700011707C4A82F82010012802D004280AD17A
:1013800004E04FF001017C4A117005E04FF00501C7
:10139000794A117000E000BF00BF704777490860CC
:1013A00070477049096A41EA00016E4A116270474C
:1013B00073490860704730B54FF000010A460C468B
:1013C0000B46684D6D6805F00C0121B1042905D06C
:1013D000082927D105E06B4D056026E0694D0560C1
:1013E00023E0604D6D6805F470125E4D6D6805F484
:1013F00080344FF0020505EB924224B9624D02FBA6
:1014000005F505600DE0574D6D6815F4003F04D0FB
:101410005D4D02FB05F5056003E05A4D02FB05F545
:10142000056002E0574D056000BF00BF4D4D6D687F
:1014300005F0F0014FEA1111544D6B5C056825FA77
:1014400003F54560474D6D6805F4E0614FEA1121F1
:101450004E4D6B5C456825FA03F58560414D6D681E
:1014600005F460514FEAD121484D6B5C456825FA7F
:1014700003F5C5603B4D6D6805F440414FEA91317D
:10148000434D6B5CC568B5FBF3F5056130BD31B10B
:10149000344A526942EA0002324B5A6105E0314A4D
:1014A000526922EA00022F4B5A61704731B12D4A2E
:1014B000926942EA00022B4B9A6105E0294A92693F
:1014C00022EA0002274B9A61704731B1254AD2695E
:1014D00042EA0002234BDA6105E0224AD26922EA9D
:1014E0000002204BDA61704731B11E4AD26842EAED
:1014F00000021C4BDA6005E01A4AD26822EA0002B8
:10150000184BDA60704731B1164A126942EA00029C
:10151000144B1A6105E0134A126922EA0002114BCA
:101520001A6170471B49086070471149C8647047C9
:101530000C49C87170470B48406A40F080700949F7
:101540004862704701464FF00000064A92680A421E
:1015500002D04FF0010001E04FF000007047014958
:1015600088727047001002400000FFF8FFFFF6FE8F
:1015700000004242D8004242201002408004424211
:101580003C04424200127A0000093D001F00002086
:101590002F0000204004424210B50446F84884421F
:1015A00009D101218803FFF79FFF00214FF48040FC
:1015B000FFF79AFF32E0F348844209D10121480441
:1015C000FFF7A1FF00214FF40030FFF79CFF25E05B
:1015D000ED48844209D101218804FFF794FF0021DE
:1015E0004FF48020FFF78FFF18E0E848844209D1CC
:1015F0000121C804FFF787FF00214FF40020FFF707
:1016000082FF0BE0E248844208D101210805FFF780
:101610007AFF00214FF48010FFF775FF10BD2DE910
:10162000F04786B005460E464FF00004A24600BFC4
:10163000A1462746B08900B100BF2F462C8A4CF640
:10164000FF7004EA0004F08840EA04042C82AC89AC
:101650004EF6F31004EA0004B088318940EA010034
:10166000718940EA010040EA0404AC81AC8A4FF67B
:10167000FF4004EA0004B08940EA0404AC8201A8F7
:10168000FFF799FEBE48874202D1DDF810A001E0C5
:10169000DDF80CA0A88910F4004F09D00AEBCA00AD
:1016A00000EB0A1031684FEA4101B0FBF1F808E0A5
:1016B0000AEBCA0000EB0A1031684FEA8101B0FB67
:1016C000F1F84FF06400B8FBF0F04FEA00144FEA75
:1016D00014104FF0640101FB1089A88910F4004F29
:1016E0000AD04FF0320000EBC900B0FBF1F000F07F
:1016F000070040EA04040BE04FF0320000EB091051
:101700004FF06401B0FBF1F000F00F0040EA040478
:101710002C8106B0BDE8F0874FF4165101604FF000
:1017200000018180C18001814FF00C0141814FF0A7
:1017300000018181704710B502464FF00000108A09
:101740004FF2FF0300EA03000B884C8843EA0403CE
:101750008C8843EA0403CC8843EA040343EA00008C
:10176000108210BD4FF00001018041808180C18056
:10177000704721B1828942F40052828105E082895A
:101780004DF6FF7302EA030282817047F0B503460B
:101790004FF00004264625462046A1F510676A3F13
:1017A00000D100BF1846C1F3421401F01F064FF0EC
:1017B000010707FA06F5012C02D100F10C0006E042
:1017C000022C02D100F1100001E000F1140022B15E
:1017D000076847EA0507076003E0076827EA050787
:1017E0000760F0BD10B522B1838A43EA010383820A
:1017F00006E0838A6FEA0104A4B203EA0403838249
:1018000010BD028A4FF6F07302EA03020282028AD6
:1018100042EA01020282704782894FF2FF7302EAB4
:1018200003028281828942EA01028281704721B1EA
:10183000828942F00202828105E082894FF6FD73BF
:1018400002EA030282817047028A4FF6DF7302EADE
:1018500003020282028A42EA01020282704721B137
:10186000028A42F48042028205E0028A4BF6FF734C
:1018700002EA030202827047C1F3080282807047C5
:1018800001468888C0F308007047818941F0010152
:1018900081817047028BD2B20283028B42EA01221D
:1018A00002837047028B02F47F420283028B42EA7A
:1018B00001020283704721B1828A42F020028282B3
:1018C00005E0828A4FF6DF7302EA030282827047E4
:1018D00021B1828A42F01002828205E0828A4FF6AC
:1018E000EF7302EA03028282704721B1828A42F0DA
:1018F0000802828205E0828A4FF6F77302EA030249
:101900008282704721B1828942F40042828103E0E1
:101910008289C2F30E028281704721B1828A42F429
:101920000062828205E0828A4FF2FF7302EA0302BC
:1019300082827047828A4FF6FB7302EA0302828238
:10194000828A42EA01028282704721B1828A42F091
:101950000202828205E0828A4FF6FD7302EA0302E8
:101960008282704702464FF00000B1F5007F00D13F
:1019700000BF13880B420DD04FF001000CE00000B7
:10198000003801400044004000480040004C004046
:10199000005000404FF00000704701F40072B2F5B3
:1019A000007F00D100BF6FEA01020280704770B56E
:1019B00002464FF0000423461D461846A1F5106666
:1019C0006A3E00D100BFC1F3421501F01F034FF082
:1019D000010606FA03F3012D03D1968906EA0303F3
:1019E00008E0022D03D1168A06EA030302E0968A74
:1019F00006EA03034FEA21244FF0010606FA04F435
:101A0000168806EA04041BB114B14FF0010001E08E
:101A10004FF0000070BD10B54FF000021346A1F565
:101A200010646A3C00D100BF4FEA21224FF001044C
:101A300004FA02F4A3B26FEA0304048010BD0000AC
:101A40004FF0000108466D4A126842F480326B4B39
:101A50001A6000BF694A126802F4003001F1010106
:101A600010B9B1F5A06FF5D1644A126812F4003FC5
:101A700002D04FF0010001E04FF00000012842D1F8
:101A80005F4A126842F010025D4B1A601A461268F3
:101A900022F003021A601A46126842F002021A602B
:101AA000564A5268554B5A601A4652685A601A464E
:101AB000526842F480625A601A46526822F47C12DC
:101AC0005A601A46526842F4E8125A601A4612687E
:101AD00042F080721A6000BF484A126812F0007F1C
:101AE000FAD0464A526822F00302444B5A601A4622
:101AF000526842F002025A6000BF404A526802F047
:101B00000C02082AF9D1704710B5FFF799FF10BDF4
:101B100010B53A48006840F00100384908600846AE
:101B20004068384900EA01003449486008460068C6
:101B3000354900EA0100314908600846006820F490
:101B4000802008600846406820F4FE0048604FF49A
:101B50001F008860FFF7D8FF4FF000602B49086036
:101B600010BD10B54FF0000108460246234B5B68DC
:101B700003F00C0121B1042906D008292CD107E07B
:101B8000234B244C23602BE0214B224C236027E085
:101B90001A4B5B6803F47010184B5B6803F48032D7
:101BA0004FF0020303EB90402AB91B4B00FB03F3F9
:101BB000184C23600FE0114B5B6813F4003F05D015
:101BC000154B00FB03F3134C236004E0104B00FBA8
:101BD00003F3104C236003E00D4B0E4C236000BF59
:101BE00000BF064B5B68C3F303130C4CE15C094B6D
:101BF0001B6823FA01F3074C236010BD001002405C
:101C0000002002400000FFF8FFFFF6FE08ED00E0B4
:101C100000127A003400002000093D003800002046
:101C200030B50B46014600202022012409E021FAAC
:101C300002F59D4205D303FA02F5491B04FA02F5A9
:101C40002844151EA2F10102F1DC30BD064C074DFF
:101C500006E0E06840F0010394E80700984710347C
:101C6000AC42F6D3FEF768FA001E0008201E0008FA
:101C70000FB4054B10B503A9044A029800F018F8F8
:101C800010BC5DF814FB0000750800084800002037
:101C900002E008C8121F08C1002AFAD17047704735
:101CA000002001E001C1121F002AFBD17047000093
:101CB0002DE9FF4F89B004469B46002596E0252874
:101CC00033D10027641C4D4AB84601212378203BBC
:101CD00001FA03F0104202D00743641CF6E72078B3
:101CE0002E2819D114F8010F47F004072A280ED026
:101CF0006FF02F022078A0F1300109290CD808EBF1
:101D0000880102EB410100EB0108641CF2E70A982C
:101D1000641C50F8048B0A90207800286AD064284C
:101D200008D0692806D075281FD05A460B999047CD
:101D30006D1C5AE00A994FF00A0901C90A9100285E
:101D400004DAC0F100004FF02D0102E0390504D59E
:101D50002B218DF82010012104E0F90701D020216A
:101D6000F7E700218A4608AE0CE00A994FF00A090D
:101D700001C90A91F5E74946FFF752FF01F1300129
:101D800006F8011D0028F6D1ADEB060000F1200990
:101D9000780701D44FF00108C84502DDA8EB09001F
:101DA00000E000208046002706E008A85A46C05DF3
:101DB0000B9990476D1C7F1C5745F6DB04E03020E3
:101DC0005A460B9990476D1CB8F10001A8F1010823
:101DD000F5DC05E016F8010B5A460B9990476D1C8F
:101DE000B9F10001A9F10109F4DC641C2078002894
:101DF0007FF465AF0DB02846BDE8F08F09280100DB
:101E0000201E0008000000204C000000901C00086C
:101E10006C1E00084C00002004040000A01C0008F8
:101E20000001020300000000000000000034431025
:101E300010013443101001000000000000000000F9
:101E4000000000010203040102030406070809025E
:101E50000406080000A24A04000000000000000080
:0C1E60000102030406070809000000004E
:0400000508000131BD
:00000001FF
