:020000040800F2
:1000000068040020A90A0008D1030008D3030008EF
:10001000D7030008DB030008DF030008000000002E
:10002000000000000000000000000000E3030008E2
:10003000E503000800000000E7030008E9030008EA
:10004000C30A0008C30A0008C30A0008C30A00085C
:10005000C30A0008C30A0008C30A0008C30A00084C
:10006000C30A0008C30A0008C30A0008C30A00083C
:10007000C30A0008C30A0008C30A0008C30A00082C
:10008000C30A0008C30A0008C30A0008C30A00081C
:10009000C30A0008C30A0008C30A0008C30A00080C
:1000A000C30A0008C30A0008C30A0008C30A0008FC
:1000B000C30A0008C30A0008C30A0008C30A0008EC
:1000C000C30A0008C30A0008C30A0008C30A0008DC
:1000D000C30A0008C30A0008C30A0008C30A0008CC
:1000E000C30A0008C30A0008C30A0008C30A0008BC
:1000F000C30A0008C30A0008C30A0008C30A0008AC
:10010000C30A0008C30A0008C30A0008C30A00089B
:10011000C30A0008C30A0008C30A0008C30A00088B
:10012000C30A0008C30A0008C30A0008C30A00087B
:10013000DFF80CD002F02CF8004800474501000819
:100140006804002000F05BF900F01CFB2DA002F019
:1001500031F836A002F02EF83DA002F02BF800F0A6
:100160008BFA4649087008460078012803D144A05C
:1001700002F020F802E04AA002F01CF800F085FC32
:100180003EE052A002F016F800F046FA5748008808
:10019000574908805548408848800888C11700EBB7
:1001A00011610912A0EB0121524A117050480088D8
:1001B000001211464870084600F080FA2F49087076
:1001C0000846007840B1102802D020280CD107E062
:1001D00049A001F0EFFF07E057A001F0EBFF03E0BB
:1001E0005DA001F0E7FF00BF00BF68A001F0E2FFE3
:1001F0003F4801886CA001F0DDFF744800F0F6F87C
:10020000BFE700000D0A20D5E2CAC7D2BBB8F6206E
:100210004E524632344C303120CEDECFDFB4ABCA42
:10022000E4CAB5D1E9200D0A000000000D0A20D56E
:10023000E2CAC7CEDECFDFB4ABCAE420D6F7BBFA42
:10024000B6CB20B5C4B7B4C0A1D0C5CFA20D0A00AB
:100250000D0A202020D5FDD4DABCECB2E24E524685
:10026000D3EB4D4355CAC7B7F1D5FDB3A3C1ACBD60
:10027000D3A1A3A1A3A1A30D0A00000000000020A8
:100280000D0A2020202020204E5246D3EB4D43550E
:10029000C1ACBDD3B3C9B9A6A3A10D0A000000002B
:1002A0000D0A20204E5246D3EB4D4355C1ACBDD371
:1002B000CAA7B0DCA3ACC7EBD6D8D0C2BCECB2E9BD
:1002C000BDD3CFDFA1A30D0A000000000D0A20D688
:1002D000F7BBFAB6CB20BDF8C8EBD7D4D3A6B4F0A1
:1002E000B7A2CBCDC4A3CABD0D0A000036000020C2
:1002F00018000020010000200D0A20D6F7BBFAB636
:10030000CB20C3BBBDD3CAD5B5BDD3A6B4F0D0C531
:10031000BAC5A3ACB7A2CBCDB4CECAFDB3ACB9FDC0
:10032000CFDEB6A8D6B5A3ACB7A2CBCDCAA7B0DCFA
:10033000A1A3200D0A0000000D0A20CEB4D6AAD435
:10034000ADD2F2B5BCD6C2B7A2CBCDCAA7B0DCA1A4
:10035000A3200D0A000000000D0A20D6F7BBFAB654
:10036000CB20BDD3CAD5B5BD20B4D3BBFAB6CB2004
:10037000B5C4D3A6B4F0D0C5BAC5A3ACB7A2CBCD93
:10038000B3C9B9A6A37C0D0A000000000D0A20D64F
:10039000F7BBFAB6CB20BDF8C8EBBDD3CAD5C4A312
:1003A000CABDA1A3200D0A000D0A204144435F43AA
:1003B0006F6E76657274656456616C75654C6F63BB
:1003C000616C203D202564200D0A0000FFFF08001D
:1003D000704700BFFEE700BFFEE700BFFEE700BFBB
:1003E000FEE77047704770477047000001B502E0B4
:1003F0000098401E009000980028F9D108BD00B573
:1004000087B00121552001F003F80121080300F015
:10041000FFFFE020ADF8040001208DF80600182051
:100420008DF8070001A9D14800F0B0FB1020ADF80D
:10043000040001208DF8060010208DF8070001A9A6
:10044000CA4800F0A3FB0C20ADF8040001208DF891
:10045000060048208DF8070001A9C44800F096FB6B
:100460000421C24800F03FFC0020ADF808004FF422
:100470008270ADF80A000020ADF80C00ADF80E0057
:10048000ADF810004FF40070ADF812001020ADF878
:1004900014000020ADF816000720ADF8180002A9DE
:1004A000B34800F0E7FC0121B14800F088FD07B037
:1004B00000BD10B5044600BF0221AD4800F003FEA8
:1004C0000028F9D02146AA4800F0AAFD00BF01216A
:1004D000A74800F0F8FD0028F9D0A54800F0A2FDDB
:1004E000C0B210BD70B505460C4610219F4800F003
:1004F000FCFB04219D4800F0F8FB2846FFF7D9FFDC
:1005000006462046FFF7D5FF0421984800F0EBFB94
:10051000304670BD70B504461021944800F0E5FBEC
:100520000421924800F0E1FB2046FFF7C2FFFF20C4
:10053000FFF7BFFF054604218C4800F0D4FB284696
:1005400070BD2DE9F04107460D461646102187483B
:1005500000F0CBFB0421854800F0C7FB3846FFF7CD
:10056000A8FF8046002405E0FF20FFF7A2FF2855E2
:10057000601CC4B2B442F7DB04217C4800F0B3FB3A
:100580004046BDE8F0812DE9F04107460C4615468E
:100590001021764800F0A9FB0421744800F0A5FB67
:1005A0003846FFF786FF8046002605E014F8010B69
:1005B000FFF77FFF701CC6B2AE42F7DB04216B4829
:1005C00000F091FB4046BDE8F08110B5102167486E
:1005D00000F08BFB052267492A20FFF7D4FF012199
:1005E0002120FFF77FFF01212220FFF77BFF282139
:1005F0002520FFF777FF08213120FFF773FF0F2138
:100600002620FFF76FFF0F212020FFF76BFF10213F
:10061000564800F068FB10BD10B51021534800F09B
:1006200064FB052254493020FFF7ADFF05225149F4
:100630002A20FFF7A8FF01212120FFF753FF012106
:100640002220FFF74FFF1A212420FFF74BFF28211C
:100650002520FFF747FF0F212620FFF743FF0E213C
:100660002020FFF73FFF1021404800F03CFB4FF6F1
:10067000FF70FFF7BBFE10BD1FB540A103C9CDE958
:100680000201052202A93020FFF77DFF05226946FD
:100690001020FFF756FF002406E01DF80400C228D2
:1006A00000D003E0601CC4B2052CF6DB00BF052CB3
:1006B00002D1012004B010BD0020FBE770B5054653
:1006C00010212A4800F011FB08222946A020FFF73C
:1006D0005AFF1021254800F006FB00BF08212348DF
:1006E00000F0E7FA0028F9D10720FFF713FF0446CE
:1006F00021462720FFF7F6FEFF21E120FFF7F2FE5B
:1007000004F0100008B1102070BD04F0200008B102
:100710002020F9E70020F7E770B5054610211348BF
:1007200000F0E1FA00BF0821104800F0C2FA0028EA
:10073000F9D110210D4800F0D8FA0720FFF7EAFEA2
:10074000044621462720FFF7CDFE04F0400050B1BB
:10075000082229466120FFF7F4FEFF21E220FFF77F
:10076000C1FE402070BD0020FCE7000000080140F1
:1007700000300140310000202C000020C2C2C2C263
:10078000C200000000B585B0012144F2040000F071
:100790003FFE4FF40070ADF8100018208DF81300E4
:1007A00003208DF8120004A9754800F0EFF94FF40A
:1007B0008060ADF8100004208DF8130004A9704883
:1007C00000F0E4F94FF4E13000900020ADF80400AF
:1007D000ADF80600ADF80800ADF80C000C20ADF83F
:1007E0000A006946674800F0BAFE0121654800F03A
:1007F00042FF05B000BD70B504460D46E1B2614848
:1008000000F0A6FF00BF5F48008800F080000028CD
:10081000F9D0204670BDF0B503460D4616460027B8
:1008200029460A2E03D0002008702846F0BD33B9AF
:10083000302001F8010B002008702846F6E7002B55
:1008400003DA2D2001F8010B5B4242F210720DE039
:1008500093FBF2F404B937B104F1300001F8010B55
:1008600004FB123301270A2092FBF0F2002AEFDC8E
:10087000002008702846D9E70FB470B586B0064648
:100880000CA8019073E00B9800785C281CD10B98A1
:10089000401C0B9000786E2809D072280FD10D21D2
:1008A000304600F055FF0B98401C0B900BE00A21DE
:1008B000304600F04DFF0B98401C0B9003E00B9866
:1008C000401C0B9000BF4BE00B980078252840D1CE
:1008D0000B98401C0B900078642818D0732833D1F3
:1008E000019810C801900BE02178304600F030FFED
:1008F00000BF4021304600F099FF0028F9D0641C69
:1009000020780028F0D10B98401C0B9020E0019833
:1009100020C801900A2202A92846FFF77CFF02ACFA
:100920000BE02178304600F013FF00BF4021304635
:1009300000F07CFF0028F9D0641C20780028F0D15A
:100940000B98401C0B9003E00B98401C0B9000BFD1
:1009500006E00B9810F8011B0B90304600F0F8FEF3
:1009600000BF4021304600F061FF0028F9D00B980D
:100970000078002887D106B070BC5DF814FB000039
:10098000000801400038014008B50121084600F088
:1009900032FD01214FF4017000F03AFD0320ADF863
:1009A000000000208DF8030069463B4800F0EEF897
:1009B00008BD00B591B0394801F0BAF93848069041
:1009C00038480790002008900220099000200A90E3
:1009D0000B904FF480700C9080000D9020200E90B2
:1009E00000020F900020109006A92C4801F042FA56
:1009F00001212A4801F069FA0020019001208DF8B8
:100A000008008DF809004FF4602003900020049046
:100A100002208DF8140001A921484C3800F087FF0E
:100A20000523012200211E484C3801F018F8052347
:100A3000022201211A484C3801F011F8012118480E
:100A40004C3800F0ABFF012115484C3800F09BFFFB
:100A500013484C3800F0B9FF00BF11484C3800F083
:100A6000B9FF0028F9D10E484C3800F0BDFF00BF97
:100A70000B484C3800F0BDFF0028F9D1012108488F
:100A80004C3800F0C0FF11B000BD10B5FFF77CFF7F
:100A9000FFF78FFF10BD0000000801400800024072
:100AA0004C24014036000020064880470648004795
:100AB000FEE7FEE7FEE7FEE7FEE7FEE7FEE7FEE70E
:100AC000FEE7FEE7632000083101000810B5044688
:100AD000CC48844208D10121042000F0B3FC00215D
:100AE000042000F0AFFC46E0C748844208D1012151
:100AF000082000F0A7FC0021082000F0A3FC3AE049
:100B0000C248844208D10121102000F09BFC002142
:100B1000102000F097FC2EE0BD48844208D101214E
:100B2000202000F08FFC0021202000F08BFC22E030
:100B3000B848844208D10121402000F083FC002104
:100B4000402000F07FFC16E0B348844208D1012128
:100B5000802000F077FC0021802000F073FC0AE088
:100B6000AE48844207D10121801500F06BFC0021C2
:100B7000A01500F067FC10BD10B50121084600F07B
:100B800061FC0021012000F05DFC10BD2DE9F04169
:100B9000024600250026002000230024002791F8AB
:100BA00003C00CF00F0591F803C00CF0100CBCF161
:100BB000000F03D091F802C04CEA050591F800C07F
:100BC000BCF1000F31D0146800202BE04FF0010C75
:100BD0000CFA00F3B1F800C00CEA03069E4220D1E3
:100BE00083004FF00F0C0CFA03F7BC4305FA03FC2B
:100BF0004CEA040491F803C0BCF1280F06D14FF071
:100C0000010C0CFA00FCC2F814C00AE091F803C011
:100C1000BCF1480F05D14FF0010C0CFA00FCC2F8F2
:100C200010C0401C0828D1D31460B1F800C0BCF13A
:100C3000FF0F34DD546800202EE000F1080C4FF067
:100C4000010808FA0CF3B1F800C00CEA03069E4252
:100C500021D183004FF00F0C0CFA03F7BC4305FAC7
:100C600003FC4CEA040491F803C0BCF1280F05D141
:100C700000F1080C08FA0CF8C2F8148091F803C0CF
:100C8000BCF1480F07D100F1080C4FF0010808FA39
:100C90000CF8C2F81080401C0828CED35460BDE880
:100CA000F0814FF6FF710180022181700421C17033
:100CB00070470246002093680B400BB1012000E012
:100CC000002070470146886880B2704702460020C5
:100CD000D3680B400BB1012000E0002070470146B3
:100CE000C86880B2704701617047416170470AB1BE
:100CF000016100E041617047C16070474FF480328C
:100D00000A43826181618261826982697047024619
:100D10000020434B18684FF68073184040EA0210D9
:100D200008433F4B186070473E49C8617047F0B5B3
:100D30000A46002300240021002500F00046B6F1F9
:100D4000004F02D1364EF16901E0354E7168C0F3B3
:100D5000034583B200F44016B6F5401F08D121F0D8
:100D600070612F4E766826F070662D4F7E6012E01F
:100D700000F48016B6F5801F06D1032606FA05F4A6
:100D8000A14341F0706106E0460D360103FA06F614
:100D9000B14341F0706122B1460D360103FA06F607
:100DA000314300F00046B6F1004F02D11C4EF16114
:100DB00001E01B4E7160F0BD30B500228B071C0FA7
:100DC0000F2303FA04F2164B08338C1053F8243027
:100DD0009343134C08348D1044F8253023468C106F
:100DE00053F824308C07240F00FA04F423430C4CEE
:100DF00008348D1044F8253030BD0A49DC310860D4
:100E00007047000000080140000C01400010014044
:100E10000014014000180140001C01400020014066
:100E2000000001400000204210B50446BE48844244
:100E300008D10121801400F005FB0021A01400F06E
:100E400001FB16E0B948844208D10121001400F0EA
:100E500006FB0021201400F002FB0AE0B4488442A3
:100E600007D10121C01300F0FAFA0021E01300F0CD
:100E7000F6FA10BD10B50022028802F441520B8828
:100E80004C8823438C882343CC8823430C892343F9
:100E90004C8923438C892343CC8923431A43028002
:100EA000838B4FF2FF74234083830B8A038210BD30
:100EB0002DE9F04F85B005460C464FF0000902279A
:100EC0004FF000084FF0010B0026B246A88B4FF2FE
:100ED00040010840A88302202884B5F81C90A0682F
:100EE000022801D100BF38E0A08810B94FF0010BF3
:100EF00001E04FF0020B8D48854200D100E000BFB9
:100F0000684600F018FADDF800A0E088B0F5007F30
:100F10000AD14FEA1A2000EB80004000A168B0FB24
:100F2000F1F0401D86B20BE04FEA4B10BAFBF0F037
:100F300000EB80004000A168B0FBF1F0401D86B2DC
:100F40000A20B6FBF0F606F00108A6EB0800C0F395
:100F50004F074FF6FF7000EA0828022F01DBFF2F32
:100F600002DD02274FF00008E08840EA080038431D
:100F70002884A088A1890843618808432188084300
:100F800040F4006040EA0909A5F81C9005B0BDE8EE
:100F9000F08F0021018041808180C18001814181E9
:100FA0008181C18107210182704700210180418038
:100FB0008180C1800221816000218181704721B13F
:100FC000028842F04002028004E002884FF6BF73BC
:100FD0001A400280704721B1828B42F48062828382
:100FE00004E0828B4FF6FF331A408283704730B59E
:100FF000002400230C110125A540ABB21AB185884D
:101000001D43858002E085889D43858030BD1AB1EF
:1010100083880B43838002E083888B4383807047FF
:10102000818170470146888970474FF6FF6291427F
:1010300004D0028842F48072028004E002884FF6F5
:10104000FF631A400280704721B1828842F0040297
:10105000828004E082884FF6FB731A4082807047DA
:1010600002884FF2FF731A40028002880A4302800E
:101070007047018841F480510180704721B1028896
:1010800042F40052028004E002884DF6FF731A40D9
:101090000280704702460020012901D0108B00E039
:1010A000908A70470146088A7047B1F5804F04D195
:1010B000028842F48042028004E002884BF6FF730B
:1010C0001A40028070470246002013890B400BB182
:1010D000012000E000207047CA4302817047F0B54C
:1010E0000246002000240023002501F00F070126FE
:1010F000BE40B4B20B1101269E40B3B2968806EAF8
:1011000003051689264016B10DB1012000E000202C
:10111000F0BD10B5002201F00F040123A3409AB2E4
:10112000D343038110BD000000300140003800406F
:10113000003C0040DF48006840F00100DD490860E5
:1011400008464068DC490840DA49486008460068BB
:10115000DA490840D74908600846006820F4802032
:1011600008600846406820F4FE0048604FF41F0005
:1011700088607047CF49096821F48031CD4A1160F9
:101180001146096821F480211160B0F5803F03D039
:10119000B0F5802F0ED106E0C649096841F48031D0
:1011A000C44A116007E0C349096841F4A021C14A5B
:1011B000116000E000BF00BF704710B5014600227B
:1011C000002300204A11012A02D1BA4C236806E00C
:1011D000022A02D1B74C236A01E0B64C636A01F0DF
:1011E0001F02012494401C400CB1012000E00020AB
:1011F00010BD38B5002000900024002500BF31202C
:10120000FFF7DBFF05460098401C00900098B0F502
:10121000A06F01D0002DF2D03120FFF7CEFF08B132
:10122000012400E00024204638BD01460020A14AE8
:10123000106820F0F80040EAC10010607047A04933
:1012400008607047024600209A4B586820F47C10D2
:1012500042EA01031843974B586070479849086663
:10126000704701460020934A506820F0030008436D
:10127000506070478F48406800F00C00704701468E
:1012800000208C4A506820F0F000084350607047FE
:1012900001460020874A506820F4E060084350600F
:1012A000704701460020834A506820F4605040EAAD
:1012B000C1005060704729B17E4A527A02437D4B8B
:1012C0005A7204E07B4A527A82437A4B5A727047D0
:1012D0007B49D8310860704701460020754A506844
:1012E00020F440400843506070470021714A20328A
:1012F0001170704A82F82010012802D004280AD107
:1013000004E001216B4A2032117005E00521694A91
:101310002032117000E000BF00BF704769490860CB
:1013200070476449096A0143624A1162704765491E
:1013300044390860704730B50021002200240023A2
:101340005C4D6D6805F00C0121B1042905D0082918
:1013500023D105E05C4D056022E05B4D05601FE098
:10136000544D6D6805F47012524D6D6805F480346B
:10137000022505EB92421CB9544D554305600BE024
:101380004C4D6D6805F400351DB1504D5543056059
:1013900002E04D4D5543056002E04B4D056000BF36
:1013A00000BF444D6D6805F0F0010909484D6B5CC4
:1013B0000568DD4045603F4D6D6805F4E061090A50
:1013C000434D6B5C4568DD4085603A4D6D6805F4C2
:1013D0006051C90A3E4D6B5C4568DD40C560354DC6
:1013E0006D6805F44041890B3A4D6B5CC568B5FBEF
:1013F000F3F5056130BD29B12E4A526902432D4BE8
:101400005A6104E02B4A526982432A4B5A61704761
:1014100029B1284A92690243264B9A6104E0254A81
:1014200092698243234B9A61704729B1214AD2695C
:101430000243204BDA6104E01E4AD26982431D4B0D
:10144000DA61704729B11B4AD2680243194BDA604E
:1014500004E0184AD2688243164BDA60704729B11B
:10146000144A12690243134B1A6104E0114A1269CB
:101470008243104B1A617047124940390860704727
:101480000F49C86470470B49C87170470948406AE2
:1014900040F0807007494862704701460020054AC5
:1014A00092680A400AB1012000E00020704701491B
:1014B00088727047001002400000FFF8FFFFF6FE40
:1014C000000042428004424200127A0000093D00BE
:1014D0003A0000204A00002010B50446FB48844230
:1014E00009D101218803FFF7ADFF00214FF48040AF
:1014F000FFF7A8FF32E0F648844209D101214804F1
:10150000FFF7ADFF00214FF40030FFF7A8FF25E003
:10151000F048844209D101218804FFF7A0FF00218F
:101520004FF48020FFF79BFF18E0EB48844209D17D
:101530000121C804FFF793FF00214FF40020FFF7BB
:101540008EFF0BE0E548844208D101210805FFF732
:1015500086FF00214FF48010FFF781FF10BD2DE9B9
:10156000F04786B005460E460024A24600BFA146BD
:101570000027B08900B100BF2F462C8A4CF6FF70BF
:101580000440F08804432C82AC894EF6F3100440EA
:10159000B08831890843718908430443AC81AC8A1F
:1015A0004FF6FF400440B0890443AC8201A8FFF726
:1015B000C2FEC648874202D1DDF810A001E0DDF886
:1015C0000CA0A88900F4004040B10AEBCA0000EB6F
:1015D0000A1031684900B0FBF1F807E00AEBCA00D5
:1015E00000EB0A1031688900B0FBF1F86420B8FB09
:1015F000F0F004012009642101FB1089A88900F49E
:10160000004040B1322000EBC900B0FBF1F000F027
:101610000700044308E0322000EB09106421B0FB0E
:10162000F1F000F00F0004432C8106B0BDE8F08714
:101630004FF41651016000218180C18001810C218D
:10164000418100218181704710B502460020108A37
:101650004FF2FF0318400B884C8823438C882343A8
:10166000CC8823431843108210BD002101804180A3
:101670008180C180704721B1828942F40052828109
:1016800004E082894DF6FF731A4082817047F0B5FD
:101690000346002400260025002040F66A17B942C0
:1016A00000D100BF1846C1F3421401F01F06012704
:1016B00007FA06F5012C01D10C3004E0022C01D10F
:1016C000103000E014301AB107682F43076002E0C1
:1016D0000768AF430760F0BD1AB1838A0B4383826A
:1016E00002E0838A8B4383827047028A4FF6F0734D
:1016F0001A400282028A0A430282704782894FF2AC
:10170000FF731A40828182890A438281704721B126
:10171000828942F00202828104E082894FF6FD73E1
:101720001A4082817047028A4FF6DF731A400282A4
:10173000028A0A430282704721B1028A42F480423F
:10174000028204E0028A4BF6FF731A40028270475D
:10175000C1F308028280704701468888C0F3080000
:101760007047818941F0010181817047028BD2B2BB
:101770000283028B42EA012202837047028B02F449
:101780007F420283028B0A430283704721B1828A1F
:1017900042F02002828204E0828A4FF6DF731A4010
:1017A0008282704721B1828A42F01002828204E074
:1017B000828A4FF6EF731A408282704721B1828A83
:1017C00042F00802828204E0828A4FF6F7731A40E0
:1017D0008282704721B1828942F40042828103E013
:1017E0008289C2F30E028281704721B1828A42F45B
:1017F0000062828204E0828A4FF2FF731A40828282
:101800007047828A4FF6FB731A408282828A0A43AB
:101810008282704721B1828A42F00202828204E011
:10182000828A4FF6FD731A4082827047024600207A
:10183000B1F5007F00D100BF13880B400BB1012030
:1018400000E00020704701F40072B2F5007F00D183
:1018500000BFCA430280704770B5024600240023CF
:101860000025002040F66A16B14200D100BFC1F346
:10187000421501F01F03012606FA03F3012D02D1E0
:101880009689334006E0022D02D1168A334001E0EA
:10189000968A33400C12012606FA04F41688344066
:1018A00013B10CB1012000E0002070BD10B5002282
:1018B000002340F66A14A14200D100BF0A1201249D
:1018C0009440A3B2DC43048010BD00000038014006
:1018D0000044004000480040004C004000500040E0
:1018E00010B50446FA48844208D101214015FFF79B
:1018F000A9FD00216015FFF7A5FD17E0F54884421A
:1019000008D101210015FFF79DFD00212015FFF7EB
:1019100099FD0BE0F048844208D10121C803FFF78C
:1019200091FD00214FF40040FFF78CFD10BD30B554
:101930000246002000235068E84C20400D790C68D6
:1019400044EA0524204350609068E54C2040D1E9EA
:1019500002542C434D7944EA450420439060D06AF8
:1019600020F470000C7C641EE4B2234340EA035070
:10197000D06230BD00210160017141718160C160A0
:1019800001210174704721B1826842F00102826036
:1019900003E0826822F001028260704721B1826810
:1019A00042F48072826003E0826822F48072826076
:1019B000704710B50023CBB21AB144681C43446091
:1019C00002E044689C43446010BD816841F0080116
:1019D00081607047014600208A6802F008020AB15F
:1019E000012000E000207047816841F0040181601F
:1019F0007047014600208A6802F004020AB1012003
:101A000000E00020704721B1826842F4A0028260A9
:101A100003E0826822F4A002826070470146002041
:101A20008A6802F480020AB1012000E000207047B9
:101A300010B50A4600210023416821F46041531E7D
:101A400041EA4331416010BD21B1426842F4006275
:101A5000426003E0426822F4006242607047F0B5E1
:101A600004460D4600200021092D11DDE068A5F196
:101A70000A0606EB4607072606FA07F18843A5F192
:101A80000A0606EB460603FA06F10843E0600CE09E
:101A9000206905EB4507072606FA07F1884305EBA1
:101AA000450603FA06F108432061072A0FDA606B46
:101AB000561E06EB86071F2606FA07F18843561EB8
:101AC00006EB860605FA06F10843606322E00D2A5C
:101AD0000FDA206BD61F06EB86071F2606FA07F1E2
:101AE0008843D61F06EB860605FA06F108432063F5
:101AF00010E0E06AA2F10D0606EB86071F2606FA43
:101B000007F18843A2F10D0606EB860605FA06F1F9
:101B10000843E062F0BD21B1826842F48012826025
:101B200003E0826822F48012826070470146C86C2C
:101B300080B2704766484C300068704721B14268F7
:101B400042F48062426003E0426822F480624260B4
:101B5000704721B1426842F48052426003E042681B
:101B600022F48052426070470A460021816821F4C5
:101B7000E04111438160704721B1826842F4004224
:101B8000826003E0826822F400428260704721B1E3
:101B9000826842F40212826003E0826822F4021238
:101BA00082607047014600208A6802F400120AB180
:101BB000012000E000207047F0B5044615460020E3
:101BC00000220026092911DDE068A1F10A0707EBD0
:101BD000470C072707FA0CF29043A1F10A0707EB1D
:101BE000470703FA07F21043E0600CE0206901EBBD
:101BF000410C072707FA0CF2904301EB410703FA67
:101C000007F210432061A06BC0F30156EF1C06F1F0
:101C1000010CA7EB0C0707EB870C1F2707FA0CF248
:101C20009043EF1C06F1010CA7EB0C0707EB8707AD
:101C300001FA07F21043A063F0BD10B50A46002177
:101C40000023816B21F44011531E41EA035181634B
:101C500010BD08B5002300930090009B0B44009337
:101C6000009B1A6008BD08B5024600200090009253
:101C700001F12800009B184400900098006880B291
:101C800008BD0A4600214168164B194011434160C6
:101C900070474162826270470A460021416821F024
:101CA0001F0111434160704740B10949083109687B
:101CB00041F40001064A0832116007E00449083186
:101CC000096821F40001024A0832116070470000DF
:101CD0000024014000280140003C0140FFFEF0FFCD
:101CE000FDF7F1FFFFFD3FFF0246002013680B40A8
:101CF0000BB1012000E000207047CA43026070472A
:101D000070B502460020002300240B125568CEB2A5
:101D100005EA060415681D4015B10CB1012000E06C
:101D2000002070BD00220A12D343036070470000F8
:101D300001684FF6FE7211400160002101604160B0
:101D40008160C1608D49884208D18C490839496851
:101D500041F00F01894A083A51608AE087491431FD
:101D6000884208D185490839496841F0F001834A21
:101D7000083A51607DE081492831884208D17F4985
:101D80000839496841F470617C4A083A516070E052
:101D90007A493C31884208D178490839496841F488
:101DA0007041764A083A516063E074495031884284
:101DB00008D172490839496841F470216F4A083ADC
:101DC000516056E06D496431884208D16B49083949
:101DD000496841F47001694A083A516049E067492D
:101DE0007831884208D165490839496841F0706105
:101DF000624A083A51603CE06149884206D1011FBD
:101E0000096841F00F01021F116032E05C49143192
:101E1000884208D15A49091F096841F0F001584A1F
:101E2000121F116025E056492831884208D15449D3
:101E3000091F096841F47061514A121F116018E0CE
:101E40004F493C31884208D14D49091F096841F486
:101E500070414B4A121F11600BE0494950318842D2
:101E600007D14749091F096841F47021444A121FEC
:101E70001160704710B50022026847F6F0739A436C
:101E80000C6A8B6823430C6923434C6923438C6998
:101E90002343CC6923434C6A23438C6A23431A436C
:101EA0000260CB6843600B6883604B68C36010BD01
:101EB0000021016041608160C16001614161816117
:101EC000C161016241628162704721B1026842F0E2
:101ED0000102026004E002684FF6FE731A400260DD
:101EE00070471AB103680B43036002E003688B4339
:101EF00003607047416070470146486880B2704790
:101F000001460020002201F080531BB11C4B083B0E
:101F10001A6802E0194B083B1A6802EA01030BB188
:101F2000012000E00020704700F0805119B11449F1
:101F3000091F086002E011490839486070470146EE
:101F40000020002201F080531BB10D4B083B1A68A2
:101F500002E00A4B083B1A6802EA01030BB10120B8
:101F600000E00020704700F0805119B10449091FBA
:101F7000086002E0014908394860704708000240E3
:101F8000080402400CB50020019000906C480068E5
:101F900040F480306A49086000BF6948006800F476
:101FA000003000900198401C0190009818B90198E9
:101FB000B0F5A06FF1D16248006800F4003010B1B4
:101FC0000120009001E0002000900098012843D1FA
:101FD0005C48006840F010005A49086008460068F4
:101FE00020F0030008600846006840F00200086026
:101FF000534840685249486008464068486008466F
:10200000406840F4806048600846406820F47C10D6
:1020100048600846406840F4E81048600846006898
:1020200040F08070086000BF4548006800F0007014
:102030000028F9D04248406820F003004049486039
:102040000846406840F00200486000BF3C484068D5
:1020500000F00C000828F9D10CBD10B5FFF792FF75
:1020600010BD10B53648006840F0010034490860E2
:1020700008464068344908403149486008460068CD
:10208000324908402E4908600846006820F4802044
:1020900008600846406820F4FE0048604FF41F00C6
:1020A0008860FFF7DAFF4FF000602949086010BD33
:1020B00010B5002100200022214B5B6803F00C01C9
:1020C00021B1042906D0082928D107E0214B224C50
:1020D000236027E01F4B204C236023E0184B5B68F4
:1020E00003F47010164B5B6803F48032022303EB99
:1020F000904022B9194B4343174C23600DE0104B1D
:102100005B6803F4003323B1144B4343124C236048
:1021100003E0104B4343104C236003E00D4B0E4C87
:10212000236000BF00BF064B5B68C3F303130C4C76
:10213000E15C094B1B68CB40074C236010BD0000DD
:1021400000100240002002400000FFF8FFFFF6FEF2
:1021500008ED00E000127A005000002000093D0068
:102160005400002030B50B460146002020220124F7
:1021700009E021FA02F59D4205D303FA02F5491B55
:1021800004FA02F52844151EA2F10102F1DC30BD6B
:10219000064C074D06E0E06840F0010394E80700B4
:1021A00098471034AC42F6D3FDF7C6FF4823000829
:1021B000682300080FB4054B10B503A9044A029820
:1021C00000F018F810BC5DF814FB0000F7070008D9
:1021D0006400002002E008C8121F08C1002AFAD1DA
:1021E00070477047002001E001C1121F002AFBD197
:1021F000704700002DE9FF4F89B09B46044600253B
:1022000006E025280BD05A460B999047641C6D1C9C
:1022100020780028F5D10DB02846BDE8F08F0027C2
:10222000B8460122474900E0074314F8013F203B2C
:1022300002FA03F00842F7D120782E2819D114F8B9
:10224000010F47F004072A280ED06FF02F022078E4
:10225000A0F1300109290CD808EB880102EB4101FB
:1022600000EB0108641CF2E70A98641C50F8048B28
:102270000A9020780028CED0642808D0692806D09B
:1022800075281ED05A460B9990476D1C58E00A9944
:102290004FF00A0901C90A91002802DA40422D21B3
:1022A00002E0390504D52B218DF82010012103E02F
:1022B000F90704D02021F7E78A4608AE0DE0002197
:1022C000FAE70A994FF00A0901C90A91F7E7494666
:1022D000FFF748FF303106F8011D0028F7D1ADEBBC
:1022E000060000F12009780701D44FF00108C84525
:1022F00002DDA8EB090000E000208046002706E090
:1023000008A85A46C05D0B9990476D1C7F1C574525
:10231000F6DB04E030205A460B9990476D1CB8F16B
:102320000001A8F10108F5DC05E016F8010B5A469A
:102330000B9990476D1CB9F10001A9F10109F4DC7A
:10234000641C65E7092801006823000800000020DC
:1023500068000000D4210008D02300086800002095
:1023600000040000E4210008000001020300010253
:10237000030000000000000000000000000000005A
:10238000000000000000000000000000000000004D
:10239000000000003443101001344310100100000D
:1023A000000000000000010203040102030406070C
:1023B000080902040608000000A24A040000000008
:1023C00000000000010203040607080900000000E5
:0400000508000131BD
:00000001FF
